S00600004844521B
S113E000B601AA9BB701B602AA9BB702B604AA70CE
S113E010B704B605AA70B70581B600AA89A4EDB7FE
S113E02000B603AA20A4AFB70381B600AA1AA47647
S113E030B700B603AA50A4DFB703815F5CCDE04507
S113E040A3C826F881905F905C90A3C826F9819CB0
S113E050CDE000CDE02ACDE03BCDE019CDE03BCCD6
S106E060E0538006
S113FFE0E062E062E062E062E062E062E062E062FD
S113FFF0E062E062E062E062E062E062E062E04F00
S9030000FC
